{
  "contractName": "hashmarket",
  "abi": [
    {
      "anonymous": false,
      "inputs": [
        {
          "indexed": false,
          "internalType": "address",
          "name": "owner",
          "type": "address"
        },
        {
          "indexed": false,
          "internalType": "uint256",
          "name": "amount",
          "type": "uint256"
        }
      ],
      "name": "FundsPulled",
      "type": "event"
    },
    {
      "anonymous": false,
      "inputs": [
        {
          "indexed": false,
          "internalType": "bytes32",
          "name": "name",
          "type": "bytes32"
        },
        {
          "indexed": false,
          "internalType": "uint256",
          "name": "price",
          "type": "uint256"
        },
        {
          "indexed": false,
          "internalType": "address",
          "name": "seller",
          "type": "address"
        }
      ],
      "name": "ItemAdded",
      "type": "event"
    },
    {
      "anonymous": false,
      "inputs": [
        {
          "indexed": false,
          "internalType": "uint256",
          "name": "itemID",
          "type": "uint256"
        },
        {
          "indexed": false,
          "internalType": "address",
          "name": "buyer",
          "type": "address"
        },
        {
          "indexed": false,
          "internalType": "address",
          "name": "seller",
          "type": "address"
        }
      ],
      "name": "ItemPurchased",
      "type": "event"
    },
    {
      "anonymous": false,
      "inputs": [
        {
          "indexed": false,
          "internalType": "uint256",
          "name": "itemID",
          "type": "uint256"
        }
      ],
      "name": "ItemRemoved",
      "type": "event"
    },
    {
      "constant": true,
      "inputs": [
        {
          "internalType": "address",
          "name": "",
          "type": "address"
        }
      ],
      "name": "_pendingWithdrawals",
      "outputs": [
        {
          "internalType": "uint256",
          "name": "",
          "type": "uint256"
        }
      ],
      "payable": false,
      "stateMutability": "view",
      "type": "function"
    },
    {
      "constant": false,
      "inputs": [
        {
          "internalType": "bytes32",
          "name": "name",
          "type": "bytes32"
        },
        {
          "internalType": "uint256",
          "name": "price",
          "type": "uint256"
        }
      ],
      "name": "addNewItem",
      "outputs": [
        {
          "internalType": "uint256",
          "name": "",
          "type": "uint256"
        }
      ],
      "payable": false,
      "stateMutability": "nonpayable",
      "type": "function"
    },
    {
      "constant": true,
      "inputs": [
        {
          "internalType": "uint256",
          "name": "itemID",
          "type": "uint256"
        }
      ],
      "name": "getItem",
      "outputs": [
        {
          "internalType": "bytes32",
          "name": "",
          "type": "bytes32"
        },
        {
          "internalType": "uint256",
          "name": "",
          "type": "uint256"
        },
        {
          "internalType": "address",
          "name": "",
          "type": "address"
        },
        {
          "internalType": "uint256",
          "name": "",
          "type": "uint256"
        }
      ],
      "payable": false,
      "stateMutability": "view",
      "type": "function"
    },
    {
      "constant": false,
      "inputs": [
        {
          "internalType": "uint256",
          "name": "itemID",
          "type": "uint256"
        }
      ],
      "name": "buyItem",
      "outputs": [],
      "payable": true,
      "stateMutability": "payable",
      "type": "function"
    },
    {
      "constant": false,
      "inputs": [
        {
          "internalType": "uint256",
          "name": "itemID",
          "type": "uint256"
        }
      ],
      "name": "removeItem",
      "outputs": [],
      "payable": false,
      "stateMutability": "nonpayable",
      "type": "function"
    },
    {
      "constant": false,
      "inputs": [],
      "name": "pullFunds",
      "outputs": [
        {
          "internalType": "bool",
          "name": "",
          "type": "bool"
        }
      ],
      "payable": false,
      "stateMutability": "nonpayable",
      "type": "function"
    }
  ],
  "bytecode": "0x608060405234801561001057600080fd5b50610a06806100206000396000f3fe6080604052600436106100555760003560e01c806301338d5d1461005a5780633129e773146100b35780637132917114610143578063c3662b281461017e578063e43a0bb2146101e3578063e7fb74c714610212575b600080fd5b34801561006657600080fd5b5061009d6004803603604081101561007d57600080fd5b810190808035906020019092919080359060200190929190505050610240565b6040518082815260200191505060405180910390f35b3480156100bf57600080fd5b506100ec600480360360208110156100d657600080fd5b81019080803590602001909291905050506103bc565b604051808581526020018481526020018373ffffffffffffffffffffffffffffffffffffffff1673ffffffffffffffffffffffffffffffffffffffff16815260200182815260200194505050505060405180910390f35b34801561014f57600080fd5b5061017c6004803603602081101561016657600080fd5b81019080803590602001909291905050506104b6565b005b34801561018a57600080fd5b506101cd600480360360208110156101a157600080fd5b81019080803573ffffffffffffffffffffffffffffffffffffffff16906020019092919050505061063f565b6040518082815260200191505060405180910390f35b3480156101ef57600080fd5b506101f8610657565b604051808215151515815260200191505060405180910390f35b61023e6004803603602081101561022857600080fd5b81019080803590602001909291905050506107a0565b005b60008060405180608001604052808581526020018481526020013373ffffffffffffffffffffffffffffffffffffffff1681526020016000600281111561028357fe5b81525090806001815401808255809150509060018203906000526020600020906003020160009091929091909150600082015181600001556020820151816001015560408201518160020160006101000a81548173ffffffffffffffffffffffffffffffffffffffff021916908373ffffffffffffffffffffffffffffffffffffffff16021790555060608201518160020160146101000a81548160ff0219169083600281111561033057fe5b02179055505050507f1417a1fe8928926d99d994b5448477f9b5c50107df1474d7cad96769b9fd0ac8838333604051808481526020018381526020018273ffffffffffffffffffffffffffffffffffffffff1673ffffffffffffffffffffffffffffffffffffffff168152602001935050505060405180910390a1600160008054905003905092915050565b60008060008084600073ffffffffffffffffffffffffffffffffffffffff16600082815481106103e857fe5b906000526020600020906003020160020160009054906101000a900473ffffffffffffffffffffffffffffffffffffffff1673ffffffffffffffffffffffffffffffffffffffff16141561043b57600080fd5b600080878154811061044957fe5b90600052602060002090600302019050806000015481600101548260020160009054906101000a900473ffffffffffffffffffffffffffffffffffffffff168360020160149054906101000a900460ff1660028111156104a557fe5b955095509550955050509193509193565b80600073ffffffffffffffffffffffffffffffffffffffff16600082815481106104dc57fe5b906000526020600020906003020160020160009054906101000a900473ffffffffffffffffffffffffffffffffffffffff1673ffffffffffffffffffffffffffffffffffffffff16141561052f57600080fd5b600080838154811061053d57fe5b906000526020600020906003020190503373ffffffffffffffffffffffffffffffffffffffff168160020160009054906101000a900473ffffffffffffffffffffffffffffffffffffffff1673ffffffffffffffffffffffffffffffffffffffff16146105a957600080fd5b600060028111156105b657fe5b8160020160149054906101000a900460ff1660028111156105d357fe5b146105dd57600080fd5b60028160020160146101000a81548160ff021916908360028111156105fe57fe5b02179055507fa54eda4149a0fb9258911733973ecf1f6762357ed371fc6d1e63123bbce23bed836040518082815260200191505060405180910390a1505050565b60016020528060005260406000206000915090505481565b600080600160003373ffffffffffffffffffffffffffffffffffffffff1673ffffffffffffffffffffffffffffffffffffffff16815260200190815260200160002054116106a457600080fd5b6000600160003373ffffffffffffffffffffffffffffffffffffffff1673ffffffffffffffffffffffffffffffffffffffff1681526020019081526020016000205490503373ffffffffffffffffffffffffffffffffffffffff166108fc829081150290604051600060405180830381858888f1935050505015610797577f1a6b3ffc38e569eb77b736c56f6d826b44ad9f3df5f63ec4eac3dcb444668ea53382604051808373ffffffffffffffffffffffffffffffffffffffff1673ffffffffffffffffffffffffffffffffffffffff1681526020018281526020019250505060405180910390a1600191505061079d565b60009150505b90565b80600073ffffffffffffffffffffffffffffffffffffffff16600082815481106107c657fe5b906000526020600020906003020160020160009054906101000a900473ffffffffffffffffffffffffffffffffffffffff1673ffffffffffffffffffffffffffffffffffffffff16141561081957600080fd5b600080838154811061082757fe5b906000526020600020906003020190506000600281111561084457fe5b8160020160149054906101000a900460ff16600281111561086157fe5b1461086b57600080fd5b3481600101541461087b57600080fd5b34600160008360020160009054906101000a900473ffffffffffffffffffffffffffffffffffffffff1673ffffffffffffffffffffffffffffffffffffffff1673ffffffffffffffffffffffffffffffffffffffff1681526020019081526020016000208190555060018160020160146101000a81548160ff0219169083600281111561090457fe5b02179055507f3d33dab2887eb74204441fe6858b6ee245b3875af43d57969005ca2ea686395083338360020160009054906101000a900473ffffffffffffffffffffffffffffffffffffffff16604051808481526020018373ffffffffffffffffffffffffffffffffffffffff1673ffffffffffffffffffffffffffffffffffffffff1681526020018273ffffffffffffffffffffffffffffffffffffffff1673ffffffffffffffffffffffffffffffffffffffff168152602001935050505060405180910390a150505056fea265627a7a72315820e3bb294c751b5ba42440ec998c44a814e22d46466ee3b040f39fb8cf7194b5f264736f6c63430005100032",
  "source": "pragma solidity ^0.5.16;\n\ncontract hashmarket{\n\n    enum ItemStatus {active, sold, removed}\n\n    struct Item {\n        bytes32 name;\n        uint price;\n        address seller;\n        ItemStatus status;\n    }\n\n  event ItemAdded(bytes32 name, uint price, address seller);\n    event ItemPurchased(uint itemID, address buyer, address seller);\n    event ItemRemoved(uint itemID);\n    event FundsPulled(address owner, uint amount);\n\n    Item[] private _items;\n    mapping (address => uint) public _pendingWithdrawals;\n\n    modifier onlyIfItemExists(uint itemID) {\n        require(_items[itemID].seller != address(0));\n        _;\n    }\n\n    function addNewItem(bytes32 name, uint price) public returns (uint) {\n\n        _items.push(Item({\n            name: name,\n            price: price,\n            seller: msg.sender,\n            status: ItemStatus.active\n        }));\n\n        emit ItemAdded(name, price, msg.sender);\n        // Item is pushed to the end, so the lenth is used for\n        // the ID of the item\n        return _items.length - 1;\n    }\n\n    function getItem(uint itemID) public view onlyIfItemExists(itemID)\n    returns (bytes32, uint, address, uint) {\n\n        Item storage item = _items[itemID];\n        return (item.name, item.price, item.seller, uint(item.status));\n    }\n\n    function buyItem(uint itemID) public payable onlyIfItemExists(itemID) {\n\n        Item storage currentItem = _items[itemID];\n\n        require(currentItem.status == ItemStatus.active);\n        require(currentItem.price == msg.value);\n\n        _pendingWithdrawals[currentItem.seller] = msg.value;\n        currentItem.status = ItemStatus.sold;\n\n        emit ItemPurchased(itemID, msg.sender, currentItem.seller);\n    }\n\n    function removeItem(uint itemID) public onlyIfItemExists(itemID) {\n        Item storage currentItem = _items[itemID];\n\n        require(currentItem.seller == msg.sender);\n        require(currentItem.status == ItemStatus.active);\n\n        currentItem.status = ItemStatus.removed;\n\n        emit ItemRemoved(itemID);\n    }\n\n    function pullFunds() public returns (bool) {\n        require(_pendingWithdrawals[msg.sender] > 0);\n\n        uint outstandingFundsAmount = _pendingWithdrawals[msg.sender];\n\n        if (msg.sender.send(outstandingFundsAmount)) {\n            emit FundsPulled(msg.sender, outstandingFundsAmount);\n            return true;\n        } else {\n            return false;\n        }\n    }\n\n}",
  "sourcePath": "/home/vivek/Blockchain/Projects/solidity.applications/hashmarket/contracts/hashmarket.sol",
  "compiler": {
    "name": "solc",
    "version": "0.5.16+commit.9c3226ce.Emscripten.clang"
  },
  "schemaVersion": "3.2.0",
  "updatedAt": "2020-09-15T15:22:30.402Z",
  "devdoc": {
    "methods": {}
  },
  "userdoc": {
    "methods": {}
  }
}