{
  "contractName": "todolist",
  "abi": [
    {
      "inputs": [],
      "payable": false,
      "stateMutability": "nonpayable",
      "type": "constructor"
    },
    {
      "constant": true,
      "inputs": [
        {
          "internalType": "uint16",
          "name": "",
          "type": "uint16"
        }
      ],
      "name": "allTasks",
      "outputs": [
        {
          "internalType": "uint16",
          "name": "id",
          "type": "uint16"
        },
        {
          "internalType": "string",
          "name": "taskToPerform",
          "type": "string"
        },
        {
          "internalType": "bool",
          "name": "isCompleted",
          "type": "bool"
        }
      ],
      "payable": false,
      "stateMutability": "view",
      "type": "function"
    },
    {
      "constant": true,
      "inputs": [],
      "name": "tasks",
      "outputs": [
        {
          "internalType": "uint16",
          "name": "",
          "type": "uint16"
        }
      ],
      "payable": false,
      "stateMutability": "view",
      "type": "function"
    },
    {
      "constant": false,
      "inputs": [
        {
          "internalType": "string",
          "name": "_task",
          "type": "string"
        }
      ],
      "name": "listTask",
      "outputs": [],
      "payable": false,
      "stateMutability": "nonpayable",
      "type": "function"
    }
  ],
  "bytecode": "0x60806040526000805461ffff1916905534801561001b57600080fd5b5060408051808201909152601081526f436865636b20796f7572206d61696c7360801b6020820152610055906001600160e01b0361005a16565b61017e565b6000805461ffff8082166001908101821661ffff19938416178085556040805160608101825291841680835260208084018981528484018990529188528481529190962082518154951694909516939093178455935180516100c4939285019291909101906100e3565b50604091909101516002909101805460ff191691151591909117905550565b828054600181600116156101000203166002900490600052602060002090601f016020900481019282601f1061012457805160ff1916838001178555610151565b82800160010185558215610151579182015b82811115610151578251825591602001919060010190610136565b5061015d929150610161565b5090565b61017b91905b8082111561015d5760008155600101610167565b90565b6103d58061018d6000396000f3fe608060405234801561001057600080fd5b50600436106100415760003560e01c806324bdece314610046578063650e789a146100ee578063c305a6d91461019c575b600080fd5b6100ec6004803603602081101561005c57600080fd5b81019060208101813564010000000081111561007757600080fd5b82018360208201111561008957600080fd5b803590602001918460018302840111640100000000831117156100ab57600080fd5b91908080601f0160208091040260200160405190810160405280939291908181526020018383808284376000920191909152509295506101bb945050505050565b005b61010f6004803603602081101561010457600080fd5b503561ffff16610244565b6040805161ffff8516815282151591810191909152606060208083018281528551928401929092528451608084019186019080838360005b8381101561015f578181015183820152602001610147565b50505050905090810190601f16801561018c5780820380516001836020036101000a031916815260200191505b5094505050505060405180910390f35b6101a46102fb565b6040805161ffff9092168252519081900360200190f35b6000805461ffff8082166001908101821661ffff199384161780855560408051606081018252918416808352602080840189815284840189905291885284815291909620825181549516949095169390931784559351805161022593928501929190910190610305565b50604091909101516002909101805460ff191691151591909117905550565b600160208181526000928352604092839020805481840180548651600261010097831615979097026000190190911695909504601f810185900485028601850190965285855261ffff909116949193929091908301828280156102e85780601f106102bd576101008083540402835291602001916102e8565b820191906000526020600020905b8154815290600101906020018083116102cb57829003601f168201915b5050506002909301549192505060ff1683565b60005461ffff1681565b828054600181600116156101000203166002900490600052602060002090601f016020900481019282601f1061034657805160ff1916838001178555610373565b82800160010185558215610373579182015b82811115610373578251825591602001919060010190610358565b5061037f929150610383565b5090565b61039d91905b8082111561037f5760008155600101610389565b9056fea265627a7a7231582082e8023c552a90f1de2df7f7eb3a35b3af2a313530b202e9851bb9b152ed574a64736f6c63430005100032",
  "source": "pragma solidity 0.5.16;\n\ncontract todolist{\nuint16 public tasks = 0; //count the tasks\n\nstruct Todo{\n    uint16 id;\n    string taskToPerform;\n    bool isCompleted;\n}\n\nmapping (uint16 => Todo) public allTasks;  //map task number to Todo struct\n\nconstructor() public{\n    listTask(\"Check your mails\"); //default task to load while deployed\n}\n\n\nfunction listTask(string memory _task) public {\n    tasks++;\n    allTasks[tasks] = Todo(tasks, _task, false);\n}\n\n\n\n}",
  "sourcePath": "/home/vivek/Blockchain/Projects/solidity.applications/todo/contracts/todolist.sol",
  "compiler": {
    "name": "solc",
    "version": "0.5.16+commit.9c3226ce.Emscripten.clang"
  },
  "schemaVersion": "3.2.0",
  "updatedAt": "2020-08-18T06:55:23.300Z",
  "networkType": "ethereum",
  "devdoc": {
    "methods": {}
  },
  "userdoc": {
    "methods": {}
  }
}