{
  "contractName": "todolist",
  "abi": [
    {
      "constant": true,
      "inputs": [],
      "name": "tasks",
      "outputs": [
        {
          "internalType": "uint16",
          "name": "",
          "type": "uint16"
        }
      ],
      "payable": false,
      "stateMutability": "view",
      "type": "function"
    }
  ],
  "bytecode": "0x608060405260008060006101000a81548161ffff021916908361ffff160217905550348015602c57600080fd5b5060998061003b6000396000f3fe6080604052348015600f57600080fd5b506004361060285760003560e01c8063c305a6d914602d575b600080fd5b60336051565b604051808261ffff1661ffff16815260200191505060405180910390f35b6000809054906101000a900461ffff168156fea265627a7a72315820a6fe361a74439f393ccf7a5aa72c0e7e7e711848080b03ad3de76361f569229764736f6c63430005100032",
  "source": "pragma solidity 0.5.16;\n\ncontract todolist{\nuint16 public tasks =0;\n}",
  "sourcePath": "/home/vivek/Blockchain/Projects/solidity.applications/todo/contracts/todolist.sol",
  "compiler": {
    "name": "solc",
    "version": "0.5.16+commit.9c3226ce.Emscripten.clang"
  },
  "schemaVersion": "3.2.0",
  "updatedAt": "2020-08-17T13:13:56.031Z",
  "networkType": "ethereum",
  "devdoc": {
    "methods": {}
  },
  "userdoc": {
    "methods": {}
  }
}